:100000000C9458000C9480000C9480000C94800098
:100010000C9480000C9480000C9480000C94800060
:100020000C9480000C9480000C9480000C94800050
:100030000C9480000C9480000C9480000C94800040
:100040000C940C040C9480000C94DA030C94B4030C
:100050000C9480000C9480000C9480000C94800020
:100060000C9456040C948000000000002500280029
:100070002B00040404040404040402020202020229
:10008000030303030303010204081020408001025C
:1000900004081020010204081020000000080002DB
:1000A00001000003040700000000000000008405B8
:1000B00011241FBECFEFD8E0DEBFCDBF11E0A0E01E
:1000C000B1E0EAE0F3E102C005900D92A83BB10770
:1000D000D9F722E0A8EBB1E001C01D92A13EB20722
:1000E000E1F710E0C8E5D0E004C02197FE010E94CE
:1000F0007809C735D107C9F70E94C6050C94830952
:100100000C94000090E0FC01E656FF4F2491FC01A6
:10011000EA57FF4F3491FC01EE58FF4FE491EE2374
:10012000B1F1222339F1233091F038F42130A9F0D4
:10013000223001F584B58F7D12C0273091F0283030
:10014000A1F02430B9F4809180008F7D03C08091AC
:1001500080008F77809380000DC084B58F7784BD39
:1001600009C08091B0008F7703C08091B0008F7D6F
:100170008093B000F0E0EE0FFF1FE859FF4FA5910C
:10018000B4918FB7F894EC913E2B3C938FBF0895B8
:10019000E0913302F09134020190F081E02D682F5C
:1001A00083E392E00994CF92DF92EF92FF920F9354
:1001B0001F93CF93DF936C017A018B01C0E0D0E0F5
:1001C000CE15DF0589F0D8016D918D01D601ED9135
:1001D000FC910190F081E02DC6010995892B11F465
:1001E0007E0102C02196ECCFC701DF91CF911F9114
:1001F0000F91FF90EF90DF90CF900895FC01538D09
:10020000448D252F30E0842F90E0821B930B5417F0
:1002100010F0CF96089501970895FC01918D828D7D
:10022000981761F0828DDF01A80FB11D5D968C914A
:10023000928D9F5F9F73928F90E008958FEF9FEF55
:100240000895FC01918D828D981731F0828DE80F11
:10025000F11D858D90E008958FEF9FEF0895FC01CB
:10026000918D228D892F90E0805C9F4F821B910998
:100270008F739927089583E392E00E942F0121E074
:10028000892B09F420E0822F0895FC01848DDF0181
:10029000A80FB11DA35ABF4F2C91848D90E00196F9
:1002A0008F739927848FA689B7892C93A089B189E8
:1002B0008C9180648C93938D848D981306C00288F2
:1002C000F389E02D80818F7D80830895EF92FF92E6
:1002D0000F931F93CF93DF93EC0181E0888F9B8D69
:1002E0008C8D981305C0E889F989808185FD24C02B
:1002F000F62E0B8D10E00F5F1F4F0F731127E02EAE
:100300008C8DE8120CC00FB607FCFACFE889F9898A
:10031000808185FFF5CFCE010E944501F1CF8B8D05
:10032000FE01E80FF11DE35AFF4FF0820B8FEA89BF
:10033000FB898081806207C0EE89FF896083E8893C
:10034000F98980818064808381E090E0DF91CF91A2
:100350001F910F91FF90EF900895CF93DF93EC01E1
:10036000888D8823C9F0EA89FB89808185FD05C0D5
:10037000A889B9898C9186FD0FC00FB607FCF5CF0F
:10038000808185FFF2CFA889B9898C9185FFEDCF57
:10039000CE010E944501E7CFDF91CF91089580E023
:1003A00090E0892B29F00E943B0181110C94000000
:1003B00008953FB7F8948091280290912902A09166
:1003C0002A02B0912B0226B5A89B05C02F3F19F039
:1003D0000196A11DB11D3FBFBA2FA92F982F8827C5
:1003E000820F911DA11DB11DBC01CD0142E0660F20
:1003F000771F881F991F4A95D1F7089585ED80933F
:10040000BC008091BC0084FDFCCF10922E020895A8
:100410004091DA01262F30E0240F311D21323105C1
:10042000DCF420912E022430C9F4FC0180E090E03D
:10043000861758F43091DA012191DC01A854BE4F9F
:10044000A30FB11D2C930196F3CF8091DA01680FB1
:100450006093DA0180E0089581E0089582E00895D4
:10046000089581E090E030913202209131023217FC
:1004700010F480E090E09195819591090895809124
:10048000320290913102891730F48F5F80933202EB
:1004900080E090E008958FEF9FEF08958091310202
:1004A00090E020913202821B91090895CF93DF934F
:1004B00000D0CDB7DEB7CB01642F49835A830E94A9
:1004C00008024981842F5A81952F0F900F90DF9158
:1004D000CF910895CF93DF931F92CDB7DEB7698395
:1004E00061E0CE0101960E94080281E090E00F9049
:1004F000DF91CF910895089580E090E008950097EE
:1005000069F0FC0101900020E9F73197AF01481B29
:10051000590BBC0183E392E00C94D30080E090E09F
:100520000895CF93DF930E947F02EC0184E291E073
:100530000E947F028C0F9D1FDF91CF9108958F92B3
:100540009F92AF92BF920F931F93CF93DF93CDB73C
:10055000DEB7A1970FB6F894DEBF0FBECDBF19A2CC
:10056000423008F44AE08E010F5D1F4F842E912C1B
:10057000A12CB12CA50194010E945609E62FB901C6
:10058000CA0101501109EA3014F4E05D01C0E95CD0
:10059000D801EC93232B242B252B61F7C8010E9453
:1005A0007F02A1960FB6F894DEBF0FBECDBFDF91DC
:1005B000CF911F910F91BF90AF909F908F90089512
:1005C0004F925F926F927F928F929F92AF92BF9263
:1005D000CF92DF92EF92FF92CF93DF936B017C017A
:1005E000B42E9B01AC010E945109882319F087E2C7
:1005F00091E01AC026013701E89477F82FEF3FEF1A
:100600004FE75FE7C301B2010E945109811110C099
:100610002FEF3FEF4FE75FE7C301B2010E9487076B
:10062000181634F48BE291E00E947F02EC0185C041
:100630002FEF3FEF4FE75FE4C701B6010E94DF08ED
:1006400018161CF48FE291E0EFCF2FEF3FEF4FE74A
:100650005FECC701B6010E94870787FDF3CF20E05A
:1006600030E0A901C701B6010E94870787FF09C0D2
:100670008DE20E94C800EC01F7FAF094F7F8F094CC
:1006800002C0C0E0D0E0A12C60E070E080E09FE319
:10069000AB1440F420E030E040E251E40E948C07CB
:1006A000A394F6CF9B01AC01C701B6010E941B07C2
:1006B0002B013C010E94FE076B017C010E942D086A
:1006C0009B01AC01C301B2010E941A072B013C013E
:1006D0004AE0C701B6010E949F02C80FD91FBB2084
:1006E00029F08EE20E94C800C80FD91FFB2CFF2002
:1006F00021F120E030E040E251E4C301B2010E9468
:10070000E4082B013C010E94FE074B01A12CB12CF7
:100710004AE0C501B4010E949F02C80FD91FC5015C
:10072000B4010E942D089B01AC01C301B2010E94DB
:100730001A072B013C01FA94DACF84E291E00E947F
:100740007F028C0F9D1FDF91CF91FF90EF90DF9084
:10075000CF90BF90AF909F908F907F906F905F9061
:100760004F9008950E947E091F920F920FB60F922C
:1007700011242F933F934F935F936F937F938F93A6
:100780009F93AF93BF93EF93FF9383E392E00E9415
:100790004501FF91EF91BF91AF919F918F917F9113
:1007A0006F915F914F913F912F910F900FBE0F90DE
:1007B0001F9018951F920F920FB60F9211242F932E
:1007C0008F939F93EF93FF93E0914302F091440244
:1007D0008081E0914902F0914A0282FD12C090812D
:1007E00080914C028F5F8F7320914D02821751F0E0
:1007F000E0914C02F0E0ED5CFD4F958F80934C0250
:1008000001C08081FF91EF919F918F912F910F9067
:100810000FBE0F901F9018951F920F920FB60F9258
:1008200011242F933F938F939F93AF93BF93809106
:10083000240290912502A0912602B09127023091C6
:10084000230223E0230F2D3720F40196A11DB11DB3
:1008500005C026E8230F0296A11DB11D2093230297
:100860008093240290932502A0932602B09327023E
:100870008091280290912902A0912A02B0912B0226
:100880000196A11DB11D8093280290932902A09387
:100890002A02B0932B02BF91AF919F918F913F910C
:1008A0002F910F900FBE0F901F9018951F920F92CF
:1008B0000FB60F9211242F933F934F935F936F9333
:1008C0007F938F939F93AF93BF93EF93FF93809109
:1008D000B900887F803609F49CC068F5883209F435
:1008E0005BC090F4803109F454C038F4882309F4D3
:1008F000F6C0883009F44DC0F6C0883109F44CC008
:10090000803209F45DC0EFC0803409F468C048F457
:10091000803309F455C0883309F0E5C08093FF01A6
:10092000D8C0803509F44FC0883509F45DC08834DB
:1009300009F0D9C0D6C0883909F4C7C0A8F48837EF
:1009400009F467C038F4883609F463C0803709F4C5
:1009500060C0C9C0883809F4B8C0803909F45FC0E4
:10096000803809F0C0C05BC0803B09F486C038F411
:10097000803A09F466C0883A09F47FC0B4C0803C6C
:1009800009F4A7C0883C09F4A4C0883B09F48AC0D4
:10099000AAC08091220210C0909121028091200271
:1009A000981770F5E091210281E08E0F809321026B
:1009B000F0E0E050FE4F80818093BB0085EC86C064
:1009C0008093FF018EC0E091210281E08E0F809321
:1009D00021028091BB00F0E0E050FE4F80839091B7
:1009E0002102809120026EC0E091210281E08E0FF1
:1009F000809321028091BB00F0E0E050FE4F8083A5
:100A000080912D0281116DC081E080932C0284EAD7
:100A100061C083E080932E021092FE01CFCF8091BF
:100A2000FE01803208F051C0E091FE0181E08E0F9E
:100A30008093FE018091BB00F0E0E252FE4F808384
:100A4000BDCF85EC8093BC0010922E028091FE01F8
:100A5000803230F4E091FE01F0E0E252FE4F10826D
:100A60006091FE0170E0E091DC01F091DD018EED1E
:100A700091E009951092FE0136C084E080932E0229
:100A80001092DB011092DA01E091D801F091D901C6
:100A900009958091DA01811105C081E08093DA0126
:100AA0001092B801E091DB0181E08E0F8093DB01B1
:100AB000F0E0E854FE4F80818093BB009091DB0111
:100AC0008091DA01981708F479CF85E88093BC000B
:100AD0000AC085EC8093BC0010922E0204C01092D4
:100AE000FF010E94FE01FF91EF91BF91AF919F9195
:100AF0008F917F916F915F914F913F912F910F90C7
:100B00000FBE0F901F901895E3E3F2E0138212825C
:100B100088EE93E0A0E0B0E084839583A683B7835A
:100B200024E031E03183208325EC30E035872487D1
:100B300024EC30E03787268720EC30E0318B208BA7
:100B400021EC30E0338B228B22EC30E0358B248B90
:100B500026EC30E0378B268B118E128E138E148E7E
:100B6000E0EDF2E01382128284839583A683B7833B
:100B700086E191E091838083ECEDF2E088E480836C
:100B80001482138288E0818312820895789484B558
:100B9000826084BD84B5816084BD85B5826085BD79
:100BA00085B5816085BD80916E00816080936E0007
:100BB00010928100809181008260809381008091F9
:100BC00081008160809381008091800081608093AA
:100BD00080008091B10084608093B1008091B0006A
:100BE00081608093B00080917A00846080937A0065
:100BF00080917A00826080937A0080917A0081608F
:100C000080937A0080917A00806880937A001092B5
:100C1000C1001092320210923102109230021092F2
:100C20002F0210922E0281E080932D0210922C024E
:100C300082E10E94820083E10E9482008091B900DB
:100C40008E7F8093B9008091B9008D7F8093B90029
:100C500088E48093B80085E48093BC00E09143026F
:100C6000F091440282E08083E0913F02F0914002E3
:100C70001082E0914102F091420280E18083109263
:100C80004B02E0914702F091480286E08083E091B8
:100C90004502F0914602808180618083E0914502A7
:100CA000F0914602808188608083E0914502F09156
:100CB0004602808180688083E0914502F09146027F
:100CC00080818F7D808383E391E00E9491028AE39B
:100CD00091E00E94910285E691E00E949102C0E4B9
:100CE000C0937C0080917A00806480937A00809128
:100CF0007A0086FDFCCFE090780080917900F12C9D
:100D00008701182B4801012E000CAA08BB08C50159
:100D1000B4010E942F0823E931E040EA5BE30E941E
:100D2000E4082BE734E14EE25EE30E941A072B0150
:100D30003C0120E030E040EA50E40E948C072AE0C9
:100D400037ED43E25DE30E941A072CEB34E743E101
:100D50005CE30E948C076B017C0189E891E00E94B2
:100D60007F0217FF0CC08DE20E94C800662777271C
:100D7000CB01681979098A099B094AE003C04AE056
:100D8000C501B4010E949F0284E291E00E947F02AB
:100D900080E991E00E947F0242E050E0C701B60185
:100DA0000E94E0028FE991E00E947F0220E030E0A3
:100DB00040E251E4C701B6010E94E40842E050E07D
:100DC0000E94E0028FEA91E00E947F0244E050E03E
:100DD000C301B2010E94E0028EE891E00E949102FC
:100DE0000E94D9014B015C0188EEC82E83E0D82E09
:100DF000E12CF12C0E94D901DC01CB018819990961
:100E0000AA09BB09883E9340A105B10558F021E02D
:100E1000C21AD108E108F10888EE880E83E0981E16
:100E2000A11CB11CC114D104E104F10419F70E9402
:100E3000CF0156CF5058BB27AA270E9432070C94E7
:100E4000A5080E94970838F00E949E0820F039F407
:100E50009F3F19F426F40C9494080EF4E095E7FBF8
:100E60000C948E08E92F0E94B60858F3BA1762074F
:100E700073078407950720F079F4A6F50C94D80839
:100E80000EF4E0950B2EBA2FA02D0B01B9019001A5
:100E90000C01CA01A0011124FF27591B99F0593FE9
:100EA00050F4503E68F11A16F040A22F232F342F31
:100EB0004427585FF3CF469537952795A795F0407F
:100EC0005395C9F77EF41F16BA0B620B730B840B94
:100ED000BAF09150A1F0FF0FBB1F661F771F881F4C
:100EE000C2F70EC0BA0F621F731F841F48F48795A4
:100EF00077956795B795F7959E3F08F0B0CF939596
:100F0000880F08F09927EE0F9795879508950E940E
:100F10006A0808F481E008950E94A0070C94A508CF
:100F20000E949E0858F00E94970840F029F45F3F05
:100F300029F00C948E0851110C94D9080C94940843
:100F40000E94B60868F39923B1F3552391F3951BDA
:100F5000550BBB27AA2762177307840738F09F5FDA
:100F60005F4F220F331F441FAA1FA9F335D00E2E47
:100F70003AF0E0E832D091505040E695001CCAF7B4
:100F80002BD0FE2F29D0660F771F881FBB1F261777
:100F900037074807AB07B0E809F0BB0B802DBF014E
:100FA000FF2793585F4F3AF09E3F510578F00C941D
:100FB0008E080C94D9085F3FE4F3983ED4F38695ED
:100FC00077956795B795F7959F5FC9F7880F911D3E
:100FD0009695879597F90895E1E0660F771F881F2A
:100FE000BB1F621773078407BA0720F0621B730BDD
:100FF000840BBA0BEE1F88F7E09508950E94BE0897
:1010000088F09F5798F0B92F9927B751B0F0E1F0C9
:10101000660F771F881F991F1AF0BA95C9F714C079
:10102000B13091F00E94D808B1E008950C94D8082E
:10103000672F782F8827B85F39F0B93FCCF38695B2
:1010400077956795B395D9F73EF49095809570950F
:1010500061957F4F8F4F9F4F0895E89409C097FB8C
:101060003EF490958095709561957F4F8F4F9F4F7F
:101070009923A9F0F92F96E9BB279395F6958795C3
:1010800077956795B795F111F8CFFAF4BB0F11F486
:1010900060FF1BC06F5F7F4F8F4F9F4F16C088232D
:1010A00011F096E911C0772321F09EE8872F762F63
:1010B00005C0662371F096E8862F70E060E02AF0A4
:1010C0009A95660F771F881FDAF7880F9695879590
:1010D00097F90895990F0008550FAA0BE0E8FEEF65
:1010E00016161706E807F907C0F012161306E407EC
:1010F000F50798F0621B730B840B950B39F40A26E5
:1011000061F0232B242B252B21F408950A2609F4C2
:10111000A140A6958FEF811D811D089597F99F67C6
:1011200080E870E060E008959FEF80EC089500246F
:101130000A941616170618060906089500240A943C
:1011400012161306140605060895092E0394000CC2
:1011500011F4882352F0BB0F40F4BF2B11F460FF51
:1011600004C06F5F7F4F8F4F9F4F089557FD90587A
:10117000440F551F59F05F3F71F04795880F97FB5B
:10118000991F61F09F3F79F0879508951216130615
:101190001406551FF2CF4695F1DF08C01616170644
:1011A0001806991FF1CF8695710561050894089579
:1011B000E894BB2766277727CB0197F908950E940B
:1011C0006A0808F48FEF08950E94F7080C94A508A8
:1011D0000E94970838F00E949E0820F0952311F095
:1011E0000C948E080C94940811240C94D9080E9435
:1011F000B60870F3959FC1F3950F50E0551F629F9D
:10120000F001729FBB27F00DB11D639FAA27F00D5F
:10121000B11DAA1F649F6627B00DA11D661F829F86
:101220002227B00DA11D621F739FB00DA11D621F6B
:10123000839FA00D611D221F749F3327A00D611D88
:10124000231F849F600D211D822F762F6A2F11246A
:101250009F5750409AF0F1F088234AF0EE0FFF1F9D
:10126000BB1F661F771F881F91505040A9F79E3FF4
:10127000510580F00C948E080C94D9085F3FE4F37C
:10128000983ED4F3869577956795B795F795E7954A
:101290009F5FC1F7FE2B880F911D9695879597F953
:1012A00008950E946A08880B990B0895A1E21A2EEE
:1012B000AA1BBB1BFD010DC0AA1FBB1FEE1FFF1FFA
:1012C000A217B307E407F50720F0A21BB30BE40B4A
:1012D000F50B661F771F881F991F1A9469F7609591
:1012E0007095809590959B01AC01BD01CF0108954B
:1012F000EE0FFF1F0590F491E02D099481E090E03E
:0A130000F8940C948309F894FFCFD1
:10130A00000000006601D300FE00AD012F010D01AF
:10131A002101000000006A0256027C0230024E02DD
:10132A003F0231020D0A006E616E00696E66006F3F
:10133A0076660048656C6C6F210047657474696E47
:10134A00672073696E676C652D656E6465642072CB
:10135A00656164696E67732066726F6D2041494EDC
:10136A00302E2E33004144432052616E67653A2085
:10137A002B2F2D20362E3134345620283120626905
:10138A0074203D20336D562900414430203A200014
:10139A005072657373696F6E204B70613A2000500A
:1013AA0072657373696F6E206D6261723A200056BE
:0813BA006F7574203A20000059
:00000001FF
